:020000040800F2
:1000000000040020C1020008C3020008C302000867
:10001000C3020008C3020008C3020008C3020008AC
:10002000C3020008C3020008C3020008195F0008E9
:10003000C3020008C3020008C3020008C30200088C
:10004000C3020008C3020008C3020008C30200087C
:10005000C3020008C3020008C3020008C30200086C
:10006000C3020008C3020008C3020008756A000842
:10007000896A00089D6A0008B16A0008C56A00081C
:10008000D96A0008ED6A0008C3020008C30200082C
:10009000C3020008C3020008C3020008C30200082C
:1000A000C3020008C3020008C3020008C30200081C
:1000B000C16E0008C3020008C3020008C3020008A2
:1000C000C3020008C3020008C3020008C3020008FC
:1000D000C3020008C3020008C3020008C3020008EC
:1000E000C3020008C3020008C3020008C3020008DC
:1000F000C3020008C3020008C3020008C3020008CC
:10010000C3020008C3020008C3020008C3020008BB
:10011000C3020008C3020008C3020008C3020008AB
:10012000016B0008156B0008296B00083D6B000887
:10013000516B0008C3020008C3020008C302000894
:10014000C3020008C3020008C3020008C30200087B
:10015000C3020008C3020008C3020008C30200086B
:10016000C3020008C3020008C3020008116F0008A0
:10017000C3020008C3020008C3020008C30200084B
:10018000C3020008C3020008C3020008C30200083B
:10019000C3020008C3020008C3020008C30200082B
:1001A00072B6394880F30888384880F3098838489F
:1001B0004EF60851CEF20001086040F20000CCF289
:1001C00000004EF63471CEF200010860BFF34F8F8D
:1001D000BFF36F8F40F20000C0F2F0004EF688517E
:1001E000CEF200010860BFF34F8FBFF36F8F4FF067
:1001F0000000E1EE100A4EF63C71CEF200010860FC
:10020000062080F31488BFF36F8F05F02DFC05F0F6
:100210008FFB4FF055301F491B4A91423CBF41F8BC
:10022000040BFAE71C49194A91423CBF41F8040B00
:10023000FAE71A491A4A1B4B9A423EBF51F8040B7F
:1002400042F8040BF8E700201749184A91423CBFD6
:1002500041F8040BFAE705F00BFC05F006FC144C22
:10026000144DAC4203DA54F8041B8847F9E701F057
:100270004DFF114C114DAC4203DA54F8041B884772
:10028000F9E705F0F3BB000000040020000C00209B
:100290000000000800000020000400200081000889
:1002A000000C0020B80D0020B80D002064240020B0
:1002B000A0010008A0010008A0010008A00100089A
:1002C0006EE700F000F8FEE72DE9F04F2DED108A03
:1002D000C1F80CD0C3689D46BDEC108ABDE8F08F14
:1002E000002383F311882846A047002005F0E6FD8F
:1002F000FEE705F09EFD00DFFEE7000053B94AB9B6
:10030000002908BF00281CBF4FF0FF314FF0FF301D
:1003100000F00CB8ADF1080C6DE904CE07F01CF943
:10032000DDF804E0DDE9022304B07047704700BF48
:1003300008B5084651B1002000F04EFD002814BF5A
:10034000A920BD2000F068FA012008BD00F044FD9E
:10035000002814BFAA20BE20F4E70000204B2DE99E
:10036000F74F80461868894600F00DF9064690BBA5
:1003700004F022FE830730D500231A46FF21032014
:1003800003B0BDE8F04F03F01FB91AF8017B4745F1
:1003900013D34F4511D8FF2F0FD08DF804408DF89F
:1003A00005B00199304601F077FB012805D9FF23FC
:1003B0001A461946384603F007F90134E4B2082C0E
:1003C000E3D101350B2DD3D0064B5FFA85FB03EB50
:1003D000C50A0024D9E70025F6E703B0BDE8F08F91
:1003E000C00D0020000C0020002004F08DB801207A
:1003F00070470120704708B5FFF7FBFF08BD704745
:1004000008B5FFF7FCFF08BD13B502AB03E9030015
:100410000F4B1B78B3B99DF8023073B16AB100F08D
:1004200069FD04460146009800F024FD009920462D
:1004300002B0BDE8104001F02FBB009800F03CFD79
:100440000446F3E7009800F055FD0099F0E700BF7F
:10045000B80D0020034610B400885C880A4640EAC4
:10046000044099885DF8044BFFF7CEBF0120704728
:1004700010B500210446FFF7EDFF2146FFF7C0FF4E
:1004800010BD08B501F0F6FC00F0A2F804F006F883
:10049000BDE8084001F00FBD01F012BD704708B57E
:1004A00000F014FCFFF7FAFF46F2A81005F00BFD70
:1004B000BDE8084004F038BF38B501210546FFF714
:1004C000C9FF29460446FFF796FF08B9002038BD4A
:1004D0002946204604F04AFC0028F7D02946204649
:1004E00004F06AFA0028F1D02946204604F0BCFB4B
:1004F0000028EBD02946204604F0F0F90028E5D08A
:10050000AB785BB145F65B539C421CD00AD8B4F57E
:10051000B84F12D045F6DF439C4211D02846FFF772
:1005200066FFD4E745F65C539C420FD045F65D5319
:100530009C42F3D101F032F9F0E7FFF7B0FFC5E7D5
:1005400001F0CAF9C2E701F035F9E7E701F035F942
:10055000E4E708B503F008FF002000F03AF8BDE832
:100560000840012003F0D0BF08B5FFF73DFF08BDEC
:1005700008B504F021FD00F02CF8002003F0C4FFC2
:10058000FFF7F2FF08BD030C002B16BF1846002230
:100590001022030A1CBF1846083203091EBF04328A
:1005A0001846D2B283081EBF02321846D2B24308A0
:1005B0001CBF0132D2B210467047704708B5FFF732
:1005C000FCFF08BD0120704708B5FFF7FBFF08BD21
:1005D000704710B50446FFF7F1FF2046FFF7F4FF20
:1005E00010BD30B587B06C4684E803009DF802303A
:1005F000BDF804500BB101F007F80023ADF8163038
:1006000094E8030004AC0490ADF8141094E80300DF
:1006100002904DB1BDF808204FF6FF739A4203D007
:100620002046FFF723FF18B194E8030000F022FFF3
:1006300007B030BD008800F07DBC000010B5044656
:10064000002876D0822813D104F0B6FC810770D43C
:10065000392000F07DFF01F01DF842F2107005F026
:1006600032FC392000F07CFFBDE8104001F012B8E8
:1006700083280ED104F0A0FCC2075AD4532000F006
:1006800067FF01F007F842F2107005F01CFC5320E0
:10069000E8E784280ED104F08FFC430749D44720B3
:1006A00000F056FF00F0F6FF42F2107005F00BFC70
:1006B0004720D7E7031FDBB2A02B0ED81D4B014606
:1006C000186804F0E1FC20B1204600F049FF00F07A
:1006D000E1FF204600F03CFFC6E700F12003DBB25B
:1006E000072B07D800F007040120A040C0B200F09B
:1006F00065FFB9E700F15B03DBB2022B05D82438B4
:10070000BDE8104080B204F081BC00F15803DBB2B8
:10071000162B06D8084ABDE8104032F8130004F042
:1007200085BCEC2805D901F06FFDBDE8104001F053
:1007300049BE10BD800D00200C7B000808B50028C4
:1007400058D082280FD104F037FC810752D53920C8
:1007500000F0FEFE00F09EFF392000F001FFBDE832
:10076000084000F097BF83280AD104F025FCC20797
:1007700040D5532000F0ECFE00F08CFF5320ECE756
:1007800084280AD104F018FC430733D5472000F031
:10079000DFFE00F07FFF4720DFE7021FD2B2A02A72
:1007A000DBD900F12002D2B2072A07D800F00703F4
:1007B00001209840C0B200F009FFD0E700F15B02D1
:1007C000D2B2022A04D8BDE80840002004F01EBCC2
:1007D00000F15802D2B2162A04D8BDE80840002021
:1007E00004F024BCEC2805D901F060FDBDE8084008
:1007F00001F0E8BD08BD38B505460C46FFF71EFF01
:1008000024B92846BDE83840FFF798BF6420013C72
:1008100005F059FBA4B2F3E739280CBF50210A2197
:10082000FFF7E9BF08B528B100F0C8FEBDE80840F1
:1008300000F030BF08BD08B528B100F0C7FEBDE824
:10084000084000F027BF08BD2DE9F3478779857878
:1008500081460C4600F0A2FE3F098046C8B1A8467A
:10086000BDB1C4F3072303F0F003402B04D004F11F
:100870002003DBB2072B23D9A64B5B785E071FD47E
:10088000022000F057FF00F089FE80F001005FFABF
:1008900080F8C4F3033ABAF10F0F43D8DFE81AF037
:1008A0001300130065006500C000D800420042003C
:1008B000E2003F014E014E01A60142004200AF019D
:1008C0004FF00008E5E7C4F30723C4F3032613F051
:1008D000F00F18BF3601E4B295B156B104F1200310
:1008E000DBB2072B304600D93CB900F067FE00F0C0
:1008F000D1FE2046FFF7A2FE14E000F075FEF6E7F9
:100900002046FFF71BFF6EB104F12003DBB2072B7B
:10091000304600D914B900F059FE01E000F06CFE39
:1009200000F0B8FEAAF1080ABAF1030F03D804F0E8
:1009300043FBFFF74EFEB8F1000F00F0678100F0B7
:1009400025FE10F0010040F0618189F8020000F0FE
:1009500015FE00F055FA484600F072F900F00EFE60
:1009600002B0BDE8F04700F055BAC4F3072303F026
:10097000F003C4F30326202BE4B218BF360174B190
:10098000012C37D0002D3DD0002F36D099F80630FD
:10099000D807AED56FF3071389F806302DE05D4B0D
:1009A0005B785C070AD52DB1002EBBD0304600F035
:1009B00005FEB5E7002EB5D03046ACE785B137B9B6
:1009C00000F03EFE3043C0B2FFF72CFFAAE7012F34
:1009D000F6D100F035FE3043C0B200F03DFEA1E795
:1009E0002FB900F04BFE3046FFF725FF9AE7012FA5
:1009F00098D0F6E71DB1052F94D83046E4E7042FD0
:100A000090D8F0E7002FEED0392C0CBF4FF4FA50FD
:100A10004FF47A7005F057FA2046FFF78FFE81E712
:100A200014F4406FC4F3812308D0012B7FF47AAF14
:100A300065B1C4F3090004F0F9FA73E725B1C4F312
:100A4000090004F0E3FA6DE72846FAE72846F2E7E2
:100A5000E0B225B101F0D8FB01F0B4FC62E701F08F
:100A600025FCF9E714F4407F27D1002D7FF45AAF1D
:100A7000C4F34213E1064FEA830348BF0F25DBB2FC
:100A800048BF9D4004F00F02C4F3812448BFED43EA
:100A90009A40022C45EA020009D0032C0AD0012C0E
:100AA00002D000F073F93DE700F068F93AE700F092
:100AB00075F937E700F05FF934E7C4F3012205B3B5
:100AC00012F0010F3FF42EAFC4F3421314F01000E4
:100AD0004FEA830318BF0F20DBB218BF984004F021
:100AE0000F02C4F3812418BFC0439A40022C40EA8D
:100AF00002000CD0032C0FD0012C05D000F0A8F977
:100B000010E712F0020FDDE700F09AF90AE700F0B3
:100B1000A7F907E70820002000F04EF902E7E6B247
:100B2000C4F303241DB1204600F06AF965E730469E
:100B3000FFF781FE204600F06DF9F3E6E6B2A6F17C
:100B4000F003042B3DD8DFE803F003220E151E004E
:100B50003DB1042F3FF6E6AEC4F3042000F066F981
:100B6000E0E6052FF6E7C4F30420002DE3D100F002
:100B700047F9D7E625B1C4F3042000F03BF9D1E6EC
:100B800000F026F9CEE6234B5B785B0704D5C4F36F
:100B90000420002DCFD0EAE74DB1C4F3042001902A
:100BA00000F02EF90198032100F0A0FDBAE6012023
:100BB00000F0C0FD012F7FF6B5AE022000F0BAFDB7
:100BC000B0E62DB10FB1304694E6C4F30420CEE771
:100BD0004FB1392E0CBF4FF4FA504FF47A7005F034
:100BE00072F9304619E7C4F30420A4E7C4F30322E2
:100BF000E1B2484600F04CFF00F0CCF992E6C4F3B5
:100C00000322E1B2484600F045FF8BE602B0BDE8A2
:100C1000F08700BF0820002013B5018804468078C3
:100C200000F094F90146019100F022F900F0A2F8D9
:100C30000199204602B0BDE81040FFF705BE000054
:100C400013B5044601460622684606F0D2FDA38885
:100C5000F3B1BDF800204FF6FF739A4218D020463A
:100C6000FFF72AFC70B900F099FC88B1A3787BB13A
:100C7000084B5B785B070BD4022002B0BDE8104044
:100C800000F058BD2046FFF7C7FF2046FFF7F0FBF6
:100C900002B010BD0820002008B5002004F0B6F90D
:100CA000002004F0C3F900F0AFFC00F0C3FC00F03A
:100CB000F1FC01F065FCBDE8084001F083BB08B51C
:100CC00000F056FCBDE80840FFF7E6BF08B500F0AD
:100CD00085FCBDE80840FFF7F2BFC0F30332023ADB
:100CE000C3B20D2A1CD8DFE802F007071B1B141B38
:100CF0001B1B0707181B1B18F02B13D004D8E72B5E
:100D00008CBF002001207047F42B14BF002001206D
:100D10007047E72B06D9F12BF7E7C0F3C0207047E7
:100D2000002070470120704708B5008800F002F9E4
:100D3000BDE80840FFF7D1BF82B002AB03E9030072
:100D400002B0704782B002AB03E9030002B0704703
:100D5000704708B5FFF7FCFF08BD000008B5FFF7B6
:100D6000F8FF034B1860BDE80840FFF795BF00BFD0
:100D7000BC0D00207047FFF7F1BF0000024B1B685D
:100D80001843FFF7EBBF00BFBC0D0020024B1B68F0
:100D90001840FFF7E3BF00BFBC0D0020024B1B68EB
:100DA0005840FFF7DBBF00BFBC0D0020704708B5FF
:100DB000FFF7FCFF08BD000008B5FFF7F8FF034B85
:100DC0001860BDE80840FFF767BF00BFC00D0020F6
:100DD0000020FFF7F1BF0000054B1B681BB9B0FAFC
:100DE00080F04009704723FA00F000F001007047DE
:100DF000C00D0020012303FA00F0FFF7DDBF000063
:100E0000012303FA00F0024B1B681843FFF7D4BF1D
:100E1000C00D0020012303FA00F0034B1B6823EAF6
:100E20000000FFF7C9BF00BFC00D0020012303FA77
:100E300000F0024B1B685840FFF7BEBFC00D0020FA
:100E4000024B1B681843FFF7B7BF00BFC00D00205F
:100E5000024B1B681840FFF7AFBF00BFC00D00205A
:100E6000024B1B685840FFF7A7BF00BFC00D002012
:100E700070470000C0F3072337B500EBC30301241C
:100E800000F0070084400B4AC3F3C40000EB80006D
:100E90000244E4B20020157821FA00F343F3000382
:100EA0006B40234001305D40052802F8015BF2D120
:100EB00003B030BDC40D0020C0F3072300EBC30313
:100EC00013B5C3F3C4030A4C03EB8303002200F001
:100ED00007011C44104614F8013BCB4003F001030A
:100EE000934001321843052AC0B2F4D102B010BDBC
:100EF000C40D00200D4B73B51E680D4BADF80400FA
:100F00001B681F241E4326FA04F3DB07E5B205D451
:100F1000013CF8D20025284602B070BD0199284650
:100F200000F0A0FE80B20128F2D0F4E7C00D00204E
:100F3000BC0D002007B5ADF804000198FFF7DAFFFB
:100F4000019903B05DF804EB00F08CBE13B5104BB3
:100F5000ADF804101B782BB1019802B0BDE8104029
:100F6000FFF7E8BF70B10198FFF7C4FF04460146E0
:100F70000198FFF77FFF0199204602B0BDE81040BD
:100F800000F070BE0198FFF797FF0446F3E700BF3B
:100F9000B80D0020F8B5034660B1002501261C46B7
:100FA00014F8010B74283CD00BD802282AD002D8A0
:100FB000012812D0F8BD031F6F2BFBD8FFF73EFBB3
:100FC0001AE0752837D000F17C03DBB26F2BF1D823
:100FD00000F07F00FFF7B2FB0EE09C1C5B7803F192
:100FE0002002D2B2072A0BD803F007039840C0B200
:100FF00000F010FB00F04EFB2F46FFB92346CEE772
:101000001846DBE758789C1C00F12003DBB2072B65
:10101000E0D800F0070006FA00F0C0B200F002FBD2
:10102000E8E75F789C1C002FE6D06420013F04F0C5
:101030004AFFFFB2F7E75D789C1CDDE76420013FC3
:1010400004F041FFFFB2D8E7F8B50C4B0C4E1C780A
:101050000C4D3378A34200D1F8BD05EBC40335F83D
:1010600034005F889A88D98840EA074042EA014103
:101070000134FFF767FE04F00704EAE7450E00209D
:10108000440E0020040E0020064B10B418885C8823
:101090009A88D98840EA044042EA01415DF8044B4D
:1010A000FFF750BEFC0D0020F7B5234CA37913F0D9
:1010B000F00F08D1A37833B1204B214F1D78214E7A
:1010C0003B78AB4201D103B0F0BD21460622684611
:1010D00006F08FFBA18851B3BDF800204FF6FF73D7
:1010E0009A4224D006EBC50360785A7890421ED10C
:1010F000207816F83520904219D19A78BAB99A8892
:10110000521A1149098892B2914210D9A2790A481B
:10111000012161F30712A2719A7961F307129A71A2
:10112000FFF78EFD03B0BDE8F040FFF78DBF01353E
:1011300005F00705C4E700BFFC0D0020450E0020A8
:10114000440E0020040E00207E0D00202DE9F04FFB
:1011500087B0044602AB0146B04D0622184606F0A1
:1011600048FB23780193062263780093294604A85C
:10117000A778B4F8048006F03CFBB5F8049002AB05
:10118000B9F1000F00F0F580BDF810204FF6FF7B9D
:101190005A4500F0EE80AE78002E00F0EA80A04ABA
:1011A00095F806A01288A8EB09091FFA89F94A45A3
:1011B0000AF0F00A40F2B1800622294604A8BAF1EA
:1011C000000F6FD106F015FBBDF810305B45B94636
:1011D00011D022889A420ED16FB9AB79012262F305
:1011E0000713AB71FFF750FF2846FFF729FDAB79D6
:1011F000A37100262BE0019B8DF81030009B8DF829
:101200001130B8F1000F26D0BDF810204FF6FF7353
:101210009A4220D00FBB834A834B10781B78834AB5
:1012200083421FD10298FFF785FEC0F30332012AE3
:10123000C3B229D90E3202F00F02012A2DD810F4C0
:10124000706F26D0A27912F0F00F22D14E463046B0
:1012500007B0BDE8F08F002FCBD0AB7943F001038E
:10126000AB71C6E702EBC301009F4D78BD4207D1C9
:1012700012F83350019FBD4202D189780029B8D1BC
:10128000013303F00703CBE710F4706F01D0002B9C
:10129000DCD02033DBB2072BD8D92046FFF7D0FCB7
:1012A000B146D3E706F0A5FABDF810305B4510D083
:1012B00022889A420DD167B9AB79A3712046FFF716
:1012C000BFFC08222146284606F093FAFFF7DCFE11
:1012D000BDE72046FFF728FDD8B1D7B1AB791F2B6A
:1012E0000CD92A88ADF8102004A800228DF812200D
:1012F000ADF814808DF81630FFF7A2FC08222146C5
:10130000464806F076FAFFF7CFFEFFF7BDFE01264E
:101310009DE72046FFF794FCF9E7BAF1000F0ED1E4
:1013200093E80300FFF708FD2846FFF789FC082231
:101330005146284606F06BFAFFF7A6FE59E706224B
:10134000294604A806F055FABDF810305B45C0D018
:101350002A8823889A42BCD1002FBAD1AB79A371D5
:101360002046FFF76DFC08223946284606F04FFA62
:101370006DE72A49062204A806F03BFAB9F1000FEE
:1013800060D0BDF810204FF6FF7A52455AD0AE78A3
:10139000002E57D1224AA8EB090812881FFA88F8B4
:1013A000424502AB44D93E46002FB2D01B4906222B
:1013B00004A806F01EFABDF81030534520D02A8844
:1013C00023889A421CD1AB79DA0713D413F0F002C8
:1013D00010D0F02AA37106D0DBB2C3F3031201329E
:1013E00062F30713A3712046FFF72AFC0B4808227B
:1013F000214669E708222146084806F0FAF926E75F
:101400002046FFF791FC00287FF478AFAB792046A7
:1014100043F00103AB71FFF713FC18E7FC0D00204C
:101420007E0D0020440E0020450E0020040E0020FA
:1014300093E80300FFF780FC082231460C4806F0D1
:10144000E6F943E7002F3FF464AF2046FFF76CFC5A
:10145000064600283FF45DAF08222146044806F006
:10146000C8F90348FFF7E6F8FFF71EFE2EE700BFB6
:10147000FC0D0020F0B587B06C4684E803002046E0
:10148000FFF764FE2E4FBDF804202E4D064678B1BE
:1014900094E803000490ADF814103AB1BDF81020A0
:1014A0004FF6FF739A4201D0FFF74CFC264C41E007
:1014B00094E8030004AB83E80300029029783878AD
:1014C000002AF3D0BDF808404FF6FF729442EDD0E9
:1014D000441C04F007048C420AD019461A4B082217
:1014E00003EBC00006F085F93C70FFF7ADFDDDE7CA
:1014F000FFF7ECFB0822314614483E702E7006F0D0
:1015000086F9D3E704EBC000FFF720FEB0B12B78DB
:1015100034F8330004EBC3035E889A88D98840EA24
:10152000064042EA0141FFF70DFC2B78013303F03E
:1015300007032B7028783B788342E3D107B0F0BDD6
:10154000440E0020450E0020040E0020FC0D00205B
:10155000024B0146186803F001BE00BF800D002059
:10156000024B0146186803F013BE00BF800D002037
:10157000014B186803F026BE800D0020024B93F942
:101580000000C0F3C7007047670E0020024B1878B8
:1015900000F00700704700BF670E0020034B18786B
:1015A00010F0070018BF0120704700BF670E002031
:1015B000014B1878704700BF690E0020024B1A7863
:1015C00010431870704700BF690E0020024A13785C
:1015D00023EA000010707047690E0020014B0022C2
:1015E0001A707047690E0020024B1A781043187069
:1015F000704700BF6A0E0020024A137823EA0000F9
:10160000107070476A0E0020014B00221A7070475C
:101610006A0E0020024B1A7810431870704700BF02
:10162000660E0020024A137823EA0000107070470B
:10163000660E0020014B00221A707047660E0020D3
:10164000014B1878704700BF680E0020704708B53E
:10165000FFF7FCFF08BD0000064A5278520708B5A4
:1016600006D4054A1178814202D01070FFF7EFFFCF
:1016700008BD00BF08200020680E002008B5044BFC
:101680001A781AB100201870FFF7E1FF08BD00BFFB
:10169000680E002010B50D4B0D4A1B7812780D4CCA
:1016A00013430D4A2068127813430C4A03701278D2
:1016B00032B11343037003F0C9FC08B1FFF7DEFF3A
:1016C0002068BDE8104003F07FBC00BF690E002019
:1016D0006A0E0020800D0020660E0020680E00209B
:1016E000704708B5FFF7FCFF08BD00000A4A5278B2
:1016F000520710B50CD4094C41EAC0012170FFF724
:101700007FFB94F90000C0F3C700FFF7EAFF10BDAC
:10171000BDE81040FFF774BB08200020670E0020D2
:1017200008B5034B00201870FFF7DBFF08BD00BFB2
:10173000670E002008B50C4A92F9003023EA000039
:1017400040B2107042070ED1DBB283420BD0074B80
:101750005B785B0707D4C0F3C700FFF75BFBBDE80E
:101760000840FFF7DDBF08BD670E002008200020FD
:10177000094A08B55378C3F3800181420AD060F367
:1017800082035370108800F041F8BDE80840022041
:10179000FFF7D0BF08BD00BF08200020044B5878D9
:1017A000C0F3800080F0010000F00100FFF7E0BF0F
:1017B000082000200120FFF7DBBF0020FFF7D8BF83
:1017C00008B501F025F9BDE808404FF6FF7100208B
:1017D00000F062BF08B5002000F0F7FE4FF6E963A5
:1017E000C31A5842584108BD022000F0DFBE032052
:1017F00000F0DCBE10B5042000F0D8FE0446222024
:1018000000F0D4FE44EA002080B210BD10B5C1B291
:101810000446042000F032FF210A2220BDE81040D7
:1018200000F02CBF01460F2000F044BF01461320FA
:1018300000F040BF0020FFF7F9BF08B50020FFF718
:10184000F1FFFFF7F7FF08BD10B501F0E1F84FF623
:10185000E961002000F020FF0021022000F00EFFCF
:1018600000210320002400F009FF1A4B2146042028
:101870001C6000F003FF2146222000F0FFFE2146FD
:10188000052000F0FBFE2146062000F0F7FEFF21B8
:10189000072000F0F3FE2146082000F00BFF214650
:1018A0000D2000F0EBFE2146182000F003FF21463A
:1018B000172000F0E3FE21461C2000F0FBFE21462D
:1018C000202000F0E9FE2146182000F0F3FEFFF78B
:1018D000B4FF10BDBC0D0020FFF7B6BF01460E20BF
:1018E00000F0CCBE08B503F0F1FC024B1860024BCF
:1018F000186008BD700E0020740E002008B503F0BB
:10190000E5FC024B1860024B186008BD700E002009
:101910006C0E00207047704708B5FFF7FCFF08BD4C
:10192000704708B5FFF7FCFF08BD000008B5054883
:1019300000F07EFA01F06AF8FFF7ECFFFFF7ECFF2A
:1019400008BD00BF291E00080120704708B5FFF739
:10195000FBFF08BD7047704708B5FFF7FBFFFFF7B7
:10196000FAFF08BD08B503F0AFFC00F04FFB03F031
:1019700015F9FFF7D6FF08BD2DE9F04F85B000F04F
:101980005FFB08B1FFF7AEFF0027DFF800913C4690
:101990005FFA87FA504600F097FA19F8016B864211
:1019A00080463FD0374B1B789B0701D500F092FA59
:1019B00086EA0806F6B200254FF0010B16EA0B0F77
:1019C00028D0FFF7C3FF18EA0B0F14BF0122002233
:1019D00090B18DF80A2001928DF808508DF809A079
:1019E00003F090FC40F00100ADF80C0002AB93E86E
:1019F0000300FEF7F6FD019A19F8011C01348BEA89
:101A0000010109F8011C50462946E4B202F036FBF8
:101A1000032C1CD80135EDB24FEA4B03082D5FFAB9
:101A200083FBCBD101370B2FB2D184B94FF6FF73B3
:101A3000ADF808308DF80A4003F064FC40F0010076
:101A4000ADF80C0004AB13E90300FEF7CAFD02F089
:101A50008BFC03F0C1F808B1FFF750FF0A4C00F00F
:101A6000CDFC03F0A9FA2378834207D003F0A4FA4F
:101A7000207005B0BDE8F04FFEF7ABBD05B0BDE886
:101A8000F08F00BF840E0020780E0020790E002019
:101A90000020704770470000C1F307230B2202FBB0
:101AA0000030C000034B50FA81F182B033F81100CE
:101AB00002B07047AC790008014B33F81000704752
:101AC000687B000810B500F0D9F8B0F5A04F0446C7
:101AD00030D2B0F5804F80F08B80DF2812D8BF283D
:101AE0007AD8A7280AD8A42869D8012804D0031FC7
:101AF0009BB2A12B28BF0024204610BDBF2863D174
:101B00000024F9E7B0F5005F0BD2FF28F4D8E728EE
:101B1000F2D9A0F1ED039BB2122BF1D840F4A0440E
:101B200026E0B0F5405F5DD30205C3B25DD443F457
:101B30004044E1E7B0F5AA4F1CD2B0F5A84FC3B2BC
:101B400076D2B0F5A64F0AD2B0F5A44F66D2B0F562
:101B5000A24F52D34AF2F10444EA0324CCE79A0894
:101B6000012403F003039C4044EA421444F40A4471
:101B7000A4B2C1E7B0F5B44F0FD2B0F5B24F63D203
:101B8000B0F5AC4F57D3A0F5B0439BB2FF2BB7D8FD
:101B90004AF2F00343EA00233EE0A0F5C0439BB2C3
:101BA000B3F5005FACD2C0F3042000F0E7F8000208
:101BB000E4B200F4F850204340F400549CE7A0F154
:101BC000240444F48044D3E75834254BE4B233F87A
:101BD000144044F488448FE7C03880B2FFF76CFFAC
:101BE000044689E7C0F30B00F8E743F4484483E771
:101BF000C0F30B0444F420447EE7C3F38102520196
:101C0000C0F3011442EA042403F00303012202FAA0
:101C100003F3234343F40C439CB26DE79A08012479
:101C200003F003039C4044EA421444F40C449FE74D
:101C30004AF2F40490E7C0B200F0A0F8040204F401
:101C4000F85444F4005457E700F00F0000F096F801
:101C5000C4F3031440EA042040F4104084B24BE77C
:101C60003A7B000807B5ADF804100199FFF714FF9F
:101C700003B05DF804EBFFF725BF0000E7284DD85F
:101C8000DF2807D8312861D00ED8292857D02A2834
:101C900063D07047A0F1E003072B3FD8DFE803F0E3
:101CA000123E2126303E3A3F392804D0822802D005
:101CB00035283DD07047304B1B7813F0030F18BF09
:101CC000E02070472C4A1378D9074DD4527812F08F
:101CD000010F23D013F0100F08BFE32018BF00201E
:101CE0007047254B1B7813F0040FF2E7224A137854
:101CF00059073BD45278D2073AD413F0100FEDE7CE
:101D00001D4B5A78910709D51B7813F0100F08BFA7
:101D1000E720E3E7184B1B781A07F6D47047164AFA
:101D20001378190726D452789207E6D5E420F5E710
:101D3000114B1B7813F0200F18BF292070470E4B52
:101D40001B7813F0200F18BF352070470A4B1B7803
:101D500013F0400F18BF2A207047074B1B7813F071
:101D6000400F18BF3120704739207047E22070477C
:101D7000E0207047E620704708200020294A1378A9
:101D8000590707D500F01801082927D100F0F700FE
:101D900040F00400190707D500F01801182926D1D2
:101DA00000F0E70040F014005278D10707D500F0AA
:101DB0001801082924D100F0F70040F00100920733
:101DC00007D500F01802182A23D100F0E70040F0F0
:101DD0001100DB0648BF00F0E700704700F0140177
:101DE000042904BF00F0FB0040F00800D2E700F037
:101DF0001401142904BF00F0EB0040F01800D3E7F1
:101E000000F01101012904BF00F0FE0040F00800BD
:101E1000D5E700F01102112A04BF00F0EE0040F0F7
:101E20001800D6E7082000200020704700207047E7
:101E3000014B1860704700BF840D0020FFF7C0BC45
:101E400008B500F0FDF84FF47A7004F03CF800F0AB
:101E5000F7F8012000F038F8030705D5FFF7EEFF8B
:101E6000BDE8084003F060BA08BD08B5FFF7E8FF19
:101E700008BD000008B5FFF7ADFC08B9FFF72CFD61
:101E8000FFF7B2FC084B1870FFF7B4FC074B188043
:101E9000FFF7EBFFFFF7ABFCFEF76DFF044B186895
:101EA000BDE80840FEF783BF840E00200820002014
:101EB000C00D0020704708B5FFF7FCFF08BD704754
:101EC00008B5FFF7FCFF08BD014B185C704700BF69
:101ED000152000207047032003F0F5BF00BF00BFAE
:101EE00000BF00BF00BF00BF00BF00BF00BF00BFFA
:101EF00000BF00BF00BF00BF00BF00BF00BF00BFEA
:101F0000704708B5FFF7E7FF08BD08B5202282F348
:101F10001188012100F00F03994020F00F0004F018
:101F200022FE002383F3118808BD000038B50C4D54
:101F30000B2455F8040B421C01D0FFF7E6FF013CCF
:101F400014F0FF04F5D1074D082455F8040B431C89
:101F500001D0FFF7DAFF013C14F0FF04F5D138BDE2
:101F6000887B0008687B00082DE9F843254F57F867
:101F700021305C1C06460D4640D0202282F3118899
:101F80004FF0010823F00F0903F00F0308FA03F4E0
:101F9000214642464846A4B204F0E5FDA9F81A409D
:101FA000002484F31188FFF799FF174A234652F85B
:101FB000041B481C24D021F00F0001F00F01006920
:101FC00020FA01F111F0010F0CBF4146002101334D
:101FD000DBB221434FEA4808082BCCB25FFA88F8FD
:101FE000E5D157F82500431C01D0FFF78EFF211ED5
:101FF00018BF01212846FFF784FF7455BDE8F88318
:102000000021E4E7887B0008687B000810B50B24FA
:10201000FFF78CFF22460021074805F0F8FB224617
:102020000021064805F0F3FB204600F037F8BDE834
:102030001040FEF726BA00BF152000200A2000201D
:1020400030B585B0002401940294ADF80C408DF8B1
:102050000E40E1B201A80134FFF786FF0B2CF8D146
:102060000C48224601A905F0B4FB002814BF012545
:10207000002504D00748224601A905F0BAFB06490D
:1020800004482B460B2200F00BF8FEF705FA284611
:1020900005B030BD0A200020152000207047000048
:1020A000F8B50F4C06460F4615462BB10123237099
:1020B00003F00CF90B4B186023782BB1094B18680F
:1020C00003F02CF9042808D8F8BDF25CFA54013367
:1020D0009D42FADC00232370F6E70023F8E700BFF7
:1020E000850E0020880E002008B503F031FCFFF7B4
:1020F00039FCBDE8084003F041BC08B503F044FCDE
:10210000FFF73AFCBDE8084003F05EBC08B503F0F9
:1021100095F803F01BFCFFF709FCFFF7E5FFFFF75D
:10212000ECFFFFF719FCFAE7194B1B78D90709D523
:10213000184B187800EB800080087F2824D828B33B
:10214000C0B270479A0705D5124B187800EB800093
:102150004008F2E75B0704D50E4B187800EB8000CF
:10216000EBE70D4B1B786BB10C4A0A4912780878E3
:102170009342F3D210FB03F000EB8000B0FBF2F0CF
:1021800080B2DAE70520DBE77F2070470120704747
:10219000960E00208A0D0020970E00208B0D002047
:1021A000154B1B78D90705D5144B1878800800B358
:1021B000C0B270479A0703D5104B18784008F6E76D
:1021C0005B0705D50D4B18787F28F0D97F20704725
:1021D0000B4B1B785BB10B4A084912780878934285
:1021E00036BF10FB03F080B2B0FBF2F0ECE7012049
:1021F000DEE70120704700BF960E00208E0D002004
:10220000980E00208F0D002008B5A0F1ED03122BD1
:1022100010D8DFE803F00A1013192E2E2E2E2E2EC2
:102220002E2E1C21252B363C4100FFF77DFF40421E
:102230001C4BD87008BDFFF777FFF9E7FFF774FF75
:102240004042184B9870F5E7FFF76EFFF9E7FFF78C
:10225000A7FF144B1871EDE7FFF7A2FF4042F8E724
:10226000FFF79EFF40420F4B5871E3E7FFF798FFDF
:10227000F9E70C4AF1385178012383400B4353703E
:10228000D8E7094A137843F001031370D2E7064AEE
:10229000137843F00203F8E7034A137843F004038A
:1022A000F3E700BF900E0020960E002030B5414BA2
:1022B000ED2893F9035093F9024093F9041093F930
:1022C000052012D1002D01DA0022DA70D9789A782F
:1022D0000A4351B20AB9384A11701A795B7913432B
:1022E0005AB20BB9354B1A7030BDEE2802D1002D11
:1022F000EADCEBE7EF2804D1002CE7DA00229A7041
:10230000E4E7F02802D1002CF8DCDFE7F92804D15B
:102310000029DBDD00221A71D8E7FA2802D1002952
:10232000D4DAF7E7FB2804D1002ACFDA00225A7169
:10233000CCE7FC2802D1002AF8DCC7E7F1380E28E8
:10234000C4D801A252F820F0852300088523000894
:1023500085230008852300088523000885230008BD
:102360008523000885230008CD220008CD2200081F
:10237000CD220008CD220008932300089F230008E7
:10238000A92300085A780121814022EA01025A70EB
:102390009CE70B490A7822F001020A7096E7084987
:1023A0000A7822F00202F8E705490A7822F00402CE
:1023B000F3E700BF900E0020970E0020980E00203B
:1023C000960E002008B502F09DFF094B9A78D97847
:1023D0000A431CBF074A10801A795B791A431CBF55
:1023E000054B1880BDE80840014802F005BE00BF5B
:1023F000900E00208C0E00208E0E00202DE9F0475C
:10240000564C94F9028094F9037094F9046094F99D
:10241000055094F800A094F801900023A370E37095
:102420002371637158EA07030AD04D4B188802F0F4
:102430006EFF4C490B783BB34B4A127890422DDC2F
:1024400056EA05030BD0494B188802F060FF484953
:102450000B78002B4ED0474A1278904254DCE27839
:10246000A3781343227913436279134301D0FFF712
:10247000A9FF84F800A084F8019084F80280E77036
:1024800026716571BDE8F0873B4A127802EB820243
:10249000B0EB420FD4DD01330B7001E0FF2BFAD11A
:1024A000B8F1000F08D0FFF73FFEB8F1000FCCBF26
:1024B0000123FF235843A0703FB1FFF735FE002FE3
:1024C000CCBF0123FF235843E07094F90230002B66
:1024D000B6D094F90320002AB2D0B5214B431B1289
:1024E00008BF0123A37001FB02F31B1208BF0123E5
:1024F000E370A5E7214A127802EB8202B0EB420FAB
:10250000ADDD01330B7001E0FF2BFAD13EB1FFF7D7
:1025100047FE002ECCBF0123FF23584320713DB15D
:10252000FFF73EFE002DCCBF0123FF23584360710F
:1025300094F9043094F90520002B90D0002A8ED015
:10254000B5214B431B1208BF0123237101FB02F38A
:102550001B1208BF0123637181E700BF900E0020AA
:102560008C0E0020970E0020890D00208E0E00207A
:10257000980E00208D0D0020880D00208C0D00206D
:1025800008B506220548002105F041F9044A002358
:102590001370044A1370044A137008BD900E002093
:1025A000970E0020980E0020960E002007B50023FD
:1025B000014601220DF107008DF8073000F02AFADC
:1025C0009DF8070003B05DF804FB07B50023014642
:1025D00002220DF10600ADF8063000F01BFABDF83E
:1025E000060003B05DF804FB07B504220146002392
:1025F0000DEB0200019300F00DFA019803B05DF8B5
:1026000004FB07B501228DF8071001460DF1070004
:1026100000F034FA03B05DF804FB07B50222ADF810
:10262000061001460DF1060000F028FA03B05DF82F
:1026300004FB07B50422019101460DEB020000F0F6
:102640001DFA03B05DF804FBF8B5D31D23F00703B2
:1026500000AFADEB030D0546144668460E4600F08C
:10266000D9F922466946284605F0B3F820B122463A
:102670003146284600F002FABD46F8BD38B50C4692
:102680000546FFF793FFA04205D021462846BDE846
:102690003840FFF7B6BF38BD38B50C460546FFF7E2
:1026A00094FFA04205D021462846BDE83840FFF7F8
:1026B000B4BF38BD38B50C460546FFF795FFA042BC
:1026C00005D021462846BDE83840FFF7B2BF38BDE7
:1026D00010B500F081FA094C094800F035FA0948B4
:1026E00000F032FA204600F02FFA074800F02CFAEA
:1026F00000F080FA054B1C6010BD00BF00F003081D
:1027000000E0030800E8030800F803089C1E00200E
:1027100020F0010038B500F1006404F578344FF67C
:10272000FF7123888B4282B210D10A498D5AED4342
:10273000ADB29D420CD000F04FFA2046294600F081
:1027400025FA044600F056FA204638BD0024FBE77F
:102750000524F9E79A0E0020F8B5FFF7B9FF00F05D
:102760003BFA0B4E0B4C0C4F052536F8021B39B1CA
:10277000C94389B2204600F009FA052818BF05466A
:102780000234BC42F1D100F035FA2846F8BD00BF52
:102790009A0E002000E0030800F003081E4BF7B576
:1027A0001E5A1E4F012E98BF1D4C3A6894BF02233B
:1027B0000423C3F1006394BF44EA4634803803F530
:1027C000802392BFA4B280B24FF460449A4204D9ED
:1027D00003B0BDE8F040FFF7BFBF44EA50010191EC
:1027E00000F0FAF938680199831C3B6000F0CEF9DB
:1027F000B4F5604F054609D13868F143831C89B2AE
:102800003B6000F0C3F9052818BF054600F0F2F957
:10281000284603B0F0BD00BF9A0E00209C1E002089
:102820000080FFFF37B50E4D0E4B2A689A420446D2
:1028300004D903B0BDE83040FFF78EBF00F0CCF9FB
:10284000094B2868195D41EA0421831C89B22B6079
:1028500000F09CF9019000F0CDF9019803B030BD73
:102860009C1E0020FFFF03089A0E00201F4B204AE9
:102870002048F0B51D4632F8021BC943824223F8B6
:10288000021BF8D11C4C4FF6FF7743F6FE761388F7
:10289000BB4206D0180409D4190A6B540232A24272
:1028A000F5D9164B4FF480501A60F0BD03F4C041C7
:1028B000B1F5C04F0FD1901CA04215D85188C94323
:1028C00089B279B106EA430380330246B3F5805FEB
:1028D000E4D2E952E2E75904E0D4C3F3403106EA16
:1028E0004303F3E70246D9E70246DAE79A0E0020EF
:1028F00000E0030800F00308FFFF03089C1E00200F
:1029000008B5FFF7E5FEBDE80840FFF7AFBF0000E0
:10291000B0F5805F10B5044614D20C4B1A5C8A42A5
:1029200012D01954FFF7F4FE68B97F2C04D8204662
:10293000BDE81040FFF776BF24F00100BDE810406D
:10294000FFF72CBF072010BD0020FCE79A0E0020E7
:10295000B0F5805FF8B505460E4634D210F001049C
:102960000DD0C9B2FFF7D4FF0446681C310A80B20B
:10297000FFF7CEFF052818BF04462046F8BD134BCD
:102980001F5AB942F9D01952FFF7C2FE0446002877
:10299000F3D17F2D12D8FBB2F2B293420CD028466D
:1029A000FFF740FF0446360AB6EB172FE5D0681C48
:1029B00080B2FFF737FFDDE70524F4E72846BDE8DE
:1029C000F840FFF7EBBE0724D7E700BF9A0E0020C0
:1029D000B0F5805F3ABF024B185CFF20704700BF24
:1029E0009A0E002040F6FE7398420AD8064BC207A2
:1029F00041BF5A1C125C185C40EA022058BF185AAA
:102A000070474FF6FF7070479A0E0020FFF72EBFF9
:102A1000FFF776BF2DE9F047044615464AB1CB07CC
:102A200007D588B2FFF7D4FF4A1C04F8010B013D1B
:102A3000114625F0010704F0010AA61C4FEA5508CB
:102A400001EB0709494508D1BD4204D088B2FFF720
:102A5000BFFF04F81800BDE8F08788B2FFF7C2FF97
:102A6000BAF1000F04D126F8020C02310236E9E770
:102A700006F8020C000A06F8010CF6E7F8B5054660
:102A80000C4616464AB1CB0707D54F1CA0B215F825
:102A9000011BFFF73DFF013E3C460027BA19012A02
:102AA000A5EB07030FD86FF0010273085343F342FD
:102AB000C3F10002A4EB03000FD0A95C80B2BDE813
:102AC000F840FFF725BF1A785978E01B42EA012148
:102AD00080B2FFF73DFF023FE0E7F8BD0B4BDA683D
:102AE000D0070CD4DA6851070BD4DA68D2060AD4BE
:102AF000D86800F00100C0F10500C0B270470120A5
:102B00007047022070470320704700BF002002403A
:102B100073B50446FFF7E2FF0025FF2601280FD119
:102B200014B9062002B070BD01950196019B1BB936
:102B3000FFF7D4FF013CF1E7019B013B0193F5E76F
:102B4000002C08BF0620EDE738B5054640F6FF70BB
:102B5000FFF7DEFF052815D10B4C236943F0020374
:102B600023616561236943F04003236140F6FF70F0
:102B7000FFF7CEFF06281EBF236923F0020323615F
:102B80003423E36038BD00BF00200240104B00F149
:102B900078429A4270B505460E4616D81F20FFF7B8
:102BA000B7FF052810D10B4C236943F001032361C3
:102BB0001F202E80FFF7ACFF06281EBF236923F0DD
:102BC000010323613423E36070BD0720FCE700BFED
:102BD000FEFF070000200240044B1A69120641BFA5
:102BE000034A5A6002F188325A607047002002405E
:102BF00023016745024A136943F08003136170475C
:102C00000020024030B585B010F47F4F0190C0F332
:102C10000725C0F307420DD109B12F4B9A5C11462D
:102C20001446002061F3070064F30F2062F317409D
:102C300005B030BD9DF80440002939D0264B995C81
:102C400004EB4400FF234000B0FBF3F06FF05403AB
:102C5000434303EB440303EB4303DBB215FB03F4F1
:102C6000C3F1FF036B4324121B12C5F1FF02C4F131
:102C7000FF04C3F1FF034A434C434B43C2F3072213
:102C8000C4F30724C3F30723C9B206281ED801A53D
:102C900055F820F0B52C0008232C0008BF2C0008A4
:102CA000BB2C0008C52C0008CD2C0008B52C000852
:102CB00091B2C5E70C461946B3E70B4621461446C8
:102CC0001A46AEE71C460B461146F9E70B4611467D
:102CD00022461C46A5E700BFCC7B000884B001213A
:102CE00004B0FFF78FBF012830B501D8C0B230BDA6
:102CF000B0F5F75F9DBF42090832D2B2FF2201242E
:102D0000A3185910C3F34705C3F34F0313FB03F391
:102D10009BB2834206D9013DEAB29442F0D9013C0C
:102D2000E0B2E4E7FF2902D00135ECB2F5E708464E
:102D3000DDE7000010F040021ABFC343DBB20346D8
:102D400010B503F00F0102B101310A4CC3F30113B6
:102D500004EB430214F81330527812FB01F203EB38
:102D60002213DBB2020644BF5B42DBB283F0800079
:102D700010BD00BFB47B000884B02C31134B019010
:102D800013F81130E42113FB01F3C2EB13231C33BE
:102D9000002BC0F30720B8BF5B42A0EBC3031BB2FC
:102DA00023EAE37313FB00F31B128DF80530019B3C
:102DB0000020DAB262F30700C3F3072262F30F20A8
:102DC000C3F3074363F3174004B07047000C0020BF
:102DD00084B02C31134B019013F81130E42113FB14
:102DE00001F3C2EB13231C33002BC0F30740B8BF21
:102DF0005B42A0EBC3031BB223EAE37313FB00F3B4
:102E00001B128DF80630019B0020DAB262F3070036
:102E1000C3F3072262F30F20C3F3074363F31740A2
:102E200004B07047000C002084B001908DF804209D
:102E3000019B0020DAB262F30700C3F3072262F3BA
:102E40000F20C3F3074363F3174004B0704700003B
:102E500084B02C310A4B019013F811309A1A8DF876
:102E60000420019B0020DAB262F30700C3F30722BB
:102E700062F30F20C3F3074363F3174004B07047B6
:102E8000000C00200C4B84B003EB4101019091F841
:102E900059309A1A8DF80420019B0020DAB262F3AF
:102EA0000700C3F3072262F30F20C3F3074363F362
:102EB000174004B0704700BF000C002030B5134D20
:102EC00085B02C3105EB410301905B78A3F1200420
:102ED00064B2002CBCBFC3F120035CB215F8113002
:102EE0009A1A2244C0B210448DF80400019B0020BD
:102EF000DAB262F30700C3F3072262F30F20C3F3D1
:102F0000074363F3174005B030BD00BF000C00203D
:102F100084B003EB43039DF81020019002EB5303B0
:102F20008DF80430019B0020DAB262F30700C3F38E
:102F3000072262F30F20C3F3074363F3174004B083
:102F400070471FB5019048B20028BCBF494248B243
:102F50005243C0F1380010FB002080B21C46FFF73E
:102F6000C2FE00EB400004448DF80440019B0020A9
:102F7000DAB262F30700C3F3072262F30F20C3F350
:102F8000074363F3174004B010BD00001FB5124C97
:102F900001902C3304EB430014F813304078703B5D
:102FA0005943203802FB00129DF80430002AB8BFB4
:102FB0007F3203EBE2138DF80430019B0020DAB27C
:102FC00062F30700C3F3072262F30F20C3F3074342
:102FD00063F3174004B010BD000C00201FB5124C65
:102FE00001902C3304EB430014F813304078703B0D
:102FF0005943203802FB00129DF80430002AB8BF64
:103000003F3203EBA2138DF80430019B0020DAB2AB
:1030100062F30700C3F3072262F30F20C3F30743F1
:1030200063F3174004B010BD000C002030B5174DFD
:1030300085B02C3305EB430401906478203C624357
:1030400015F81340A4F170035BB2002BBCBFC4F1B0
:10305000700463B2C3F1380301FB032111EB41019A
:1030600048BF7F31C0B200EBE1108DF80400019B36
:103070000020DAB262F30700C3F3072262F30F20E5
:10308000C3F3074363F3174005B030BD000C0020C5
:1030900030B585B00D460190C4B21046FFF74AFE28
:1030A0002C35124B13F815301844C2B2A2F180032C
:1030B0005BB2002BBCBFC2F1800253B25B0003F0D5
:1030C000FE0303EB430304EB93148DF80440019BD0
:1030D0000020DAB262F30700C3F3072262F30F2085
:1030E000C3F3074363F3174005B030BD000C002065
:1030F00084B0114B01902C31C0B213F811108B1A0F
:103100005BB2002BBCBF521A53B2DBB203EB4303DA
:1031100000EB53108DF80400019B0020DAB262F33B
:103120000700C3F3072262F30F20C3F3074363F3DF
:10313000174004B0704700BF000C002084B0C943A2
:103140000190C9B2C0F3074011FB00F109128DF8DC
:103150000610019B0020DAB262F30700C3F30722D6
:1031600062F30F20C3F3074363F3174004B07047C3
:1031700084B0C9B20190C1F18201C0B20029A8BFD8
:1031800040188DF80400019B0020DAB262F30700BA
:10319000C3F3072262F30F20C3F3074363F317401F
:1031A00004B0704784B003EB8302BDF81030019087
:1031B00013449BB2FF2B28BFFF23C0F30740DB4320
:1031C00050FA83F3FF2B28BFFF238DF80630019BB5
:1031D0000020DAB262F30700C3F3072262F30F2084
:1031E000C3F3074363F3174004B0704700291FB5CA
:1031F000B8BF4942002AB8BF524209B2090112B20F
:10320000FF294FEA0212A8BFFF21FF2AA8BFFF2211
:1032100009B2BDF81840019012B29142A8BF114600
:10322000234411FA83F4A4B2FF2C28BFFF24C0F377
:103230000740E44350FA84F4FF2C28BFFF248DF8A4
:103240000640019B0020DAB262F30700C3F30722B5
:1032500062F30F20C3F3074363F3174004B010BDBC
:103260001FB5482B0190C0F3074030D8BDF8184077
:10327000E31A9BB2FF2B28BFFF23083189B2102924
:1032800005D902F1080189B2112928BFFF2311498C
:10329000DB4350FA83F3002A4978B8BF0332FF2B8F
:1032A00001EBA20228BFFF238DF804208DF8063021
:1032B000019B0020DAB262F30700C3F3072262F336
:1032C0000F20C3F3074363F3174004B010BDFF237F
:1032D000D3E700BF2020002084B0C0F30741BDF831
:1032E00010200190D31A9BB2FF2B28BFFF23DBB223
:1032F000DA4351FA82F2FF2A28BFFF2253FA80F004
:103300008DF804008DF80620019B0020DAB262F3EC
:103310000700C3F3072262F30F20C3F3074363F3ED
:10332000174004B0704784B0BDF810200190D21A45
:1033300092B2FF2A28BFFF22C0F30740D24350FABF
:1033400082F2FF2A28BFFF228DF80620019B002071
:10335000DAB262F30700C3F3072262F30F20C3F36C
:10336000074363F3174004B070470000024B1A781C
:1033700010431870704700BFA01E0020024610B90D
:10338000C90FC801704780EAE073A3EBE07300291E
:1033900018B201FA83F30CDB091A490191FBF3F12E
:1033A000C1F120014BB2D8B2002ABCBF4042C0B22A
:1033B00070475B01401A93FBF0F3C3F160035BB20B
:1033C000F1E730B585B0C0F30725EB1A0190104640
:1033D000DCB2FFF7D3FFC0EB801300EB83000444A3
:1033E000E4B214FB05F424128DF80540019B002083
:1033F000DAB262F30700C3F3072262F30F20C3F3CC
:10340000074363F3174005B030BD30B585B0C0F356
:103410000745EB1A01901046DCB2FFF7AFFFC0EB97
:10342000801300EB83000444E4B214FB05F424127F
:103430008DF80640019B0020DAB262F30700C3F367
:10344000072262F30F20C3F3074363F3174005B06D
:1034500030BD30B585B0C0F3072501909DF8200040
:103460001C1A1046FFF78AFF2C44E4B2241AE4B277
:1034700014FB05F424128DF80540019B0020DAB2FC
:1034800062F30700C3F3072262F30F20C3F307437D
:1034900063F3174005B030BD30B585B0C0F30745C4
:1034A00001909DF820001C1A1046FFF767FF2C447E
:1034B000E4B2241AE4B214FB05F424128DF8064099
:1034C000019B0020DAB262F30700C3F3072262F324
:1034D0000F20C3F3074363F3174005B030BD1FB59A
:1034E000019010461C46FFF749FF03198DF8043080
:1034F000019B0020DAB262F30700C3F3072262F3F4
:103500000F20C3F3074363F3174004B010BD1FB58A
:1035100001909DF818001B1A1046DCB2FFF72EFF31
:10352000201A8DF80400019B0020DAB262F3070034
:10353000C3F3072262F30F20C3F3074363F317407B
:1035400004B010BD08B5082203481C21FFF77CF821
:10355000024B00221A7008BD20200020A01E00206F
:1035600084B004B0FFF7BABB10B5084C0849204638
:10357000312300F8013B032204F03BF94FF67F733F
:10358000A380BDE81040FFF7DDBF00BF2020002072
:10359000207800080020704770B506460D46144696
:1035A000FFF7F8FF044B03EBC6035B5DFF2B1EBF69
:1035B00023540130C0B270BD000C0020014BDB6809
:1035C000184700BFBC7B000810B4034C6468A446D5
:1035D0005DF8044B604700BFBC7B00082DE9F04F4D
:1035E000354BDFF8DC9004781D8899F8043004EB43
:1035F00084045B08A40089B0E4B25D43C5F30723EB
:1036000004F11406F6B202932C4B0391622EB346DA
:10361000804628BF4FF0620B03EB440703F58E7A18
:10362000E3B29B4506D8612E8CBF0020012009B073
:10363000BDE8F08F1AF8042098F801301A4237D00C
:1036400097F8583097F85900703B99B220385B438F
:1036500082B200FB003080B205910492FFF743FB79
:10366000029A99F801C099F803E00599009203467F
:1036700099F80200049A039D4CEA002012B209B2A4
:1036800040EA0E40A847C0F307238DF81C00C0F3A2
:1036900007408DF81D308DF81E000798FFF760FF7A
:1036A000C0F30743C2B2C0F307212046FFF78CFFE7
:1036B00002370134B4E700BF28200020000C0020AE
:1036C000202000200149FFF789BF00BF53340008C4
:1036D0000149FFF783BF00BF993400080149FFF794
:1036E0007DBF00BF112F00080149FFF777BF00BF62
:1036F0000F3500082DE9F04F2DED028BDFF8C49057
:1037000004782E4B99F804501B8804EB8404A40021
:103710006D08E4B25D43C5F3072304F11406F6B265
:1037200008EE103A85B0264B0191622EB3468046D2
:1037300028BF4FF0620B03EB440703F58E7AE3B228
:103740009B4508D8612E8CBF0020012005B0BDEC40
:10375000028BBDE8F08F1AF8042098F801301A4265
:1037600028D099F8023099F8010099F803C097F829
:10377000592097F85810019D40EA0320203A7039EB
:1037800018EE103A40EA0C40A847C0F307238DF822
:103790000C00C0F307408DF80D308DF80E00039833
:1037A000FFF7DEFEC0F30743C2B2C0F30721204695
:1037B000FFF70AFF02370134C1E700BF28200020CD
:1037C000000C0020202000200149FFF793BF00BF1C
:1037D000C33300080149FFF78DBF00BF0B34000859
:1037E0000149FFF787BF00BF432F00080149FFF7DA
:1037F00081BF00BFDF3400082DE9F74F0478DFF800
:10380000A490274A99F804301588DFF89CB004EB9F
:103810008404A400E4B204F114085FFA88F89B0859
:10382000B8F1620F03FB0555C24606460F4628BF96
:103830004FF0620AC5F30725E1B28A4507D8B8F10F
:10384000610F8CBF0020012003B0BDE8F08F1BF892
:10385000042073781A4220D099F8022099F8013098
:1038600099F8030043EA022343EA00402A46B84796
:10387000C0F307238DF80400C0F307408DF805302E
:103880008DF806000198FFF76BFEC0F30743C2B244
:10389000C0F307212046FFF797FE0134CCE700BFB5
:1038A00028200020202000201C0D00200149FFF7C7
:1038B000A3BF00BF792D00080149FFF79DBF00BFDE
:1038C000D12D00080149FFF797BF00BF292E00083E
:1038D0000149FFF791BF00BF512E00080149FFF7D2
:1038E0008BBF00BF852E00080149FFF785BF00BFD1
:1038F000BD2E00080149FFF77FBF00BF91300008CF
:103900000149FFF779BF00BFF13000082DE9F04F02
:103910002DED028BDFF8CCA00478304B9AF80450E0
:103920001B8804EB8404A400AD085D43E4B2C5F336
:10393000072504F114085FFA88F8814605F1400074
:10394000B8F1620F85B0C0B20E46C34628BF4FF033
:10395000620BFFF7EFF9803843B2284608EE103AC1
:10396000FFF7E8F9803847B2E3B29B4509D8B8F1D0
:10397000610F8CBF0020012005B0BDEC028BBDE8BB
:10398000F08F174A115D99F80120114223D09AF85F
:1039900002209AF801009AF803C0009540EA02203C
:1039A00018EE101A3A4640EA0C40B047C0F307231D
:1039B0008DF80C00C0F307408DF80D308DF80E0027
:1039C0000398FFF7CDFDC0F30743C2B2C0F3072150
:1039D0002046FFF7F9FD0134C6E700BF282000208C
:1039E0001C0D0020202000200149FFF78FBF00BFE1
:1039F0008D2F00080149FFF789BF00BFDD2F0008A8
:103A00000149FFF783BF00BF2D3000082DE9F04FBB
:103A10000478364DDFF8DCB02B79DFF8DCA004EB5E
:103A20008404A400E4B204F11406F6B285B00133B4
:103A3000622EB146804628BF4FF062090191FF2BEC
:103A400028BFFF234FF6FF77B7FBF3F7E1B28945B5
:103A500006D8612E8CBF0020012005B0BDE8F08F94
:103A60001BF8042098F801301A422DD09AF8003043
:103A70001F48013B5BB21A0628D53A4629796B7874
:103A8000E8780131FF2928BFFF215143AA7843EA92
:103A90000223C1F30F2143EA0040019B9847C0F382
:103AA00007238DF80C00C0F307408DF80D308DF81A
:103AB0000E000398FFF754FDC0F30743C2B2C0F3F2
:103AC00007212046FFF780FD0134BFE7C25C8A4230
:103AD0000AD103F10C020AEB420292F801C092787B
:103AE0004CEA0222BA42C9D3013BC4E7202000209D
:103AF0003D2000201C0D00202C2000200149FFF754
:103B000085BF00BF3D3100080149FFF77FBF00BFFF
:103B1000713100082DE9F04F0C7804EB8404A40007
:103B2000E4B204F11406F6B28DB0622E334628BF1B
:103B300062230593444B07921B780693434B03EB98
:103B4000440703F58E73824688460893059AE3B2CC
:103B50009A4206D8612E8CBF002001200DB0BDE82E
:103B6000F08F089B1A5D98F801301A4224D0DFF8D4
:103B7000D8B0374903220AA80AF1010503F039FE3B
:103B800005EB0B03D14603930021069A5FFA89F3F4
:103B90009A4214D82F4BDB7813FB01F31B128DF8DC
:103BA0002A300A98FFF7DCFCC0F30743C2B2C0F327
:103BB00007212046FFF708FD01340237C6E7039BC3
:103BC00097F8590013F8012B039397F8583009918F
:103BD0009B1A9AB21546039AD2795B43801A82B235
:103BE00000FB003080B20492FFF77DF8194A099972
:103BF00092F804C009F10C0E0BEB4E0E03469EF832
:103C000001209EF802008DF82A100CF1010CBCF185
:103C1000FF0F42EA002028BF4FF0FF0C00FB0CFC16
:103C2000CCF30F2029B20090BDF910200A98079D0F
:103C3000A847C0F307238DF828008DF82930C0F37A
:103C4000074109F10109A0E72C200020000C002009
:103C50002120002020200020044B054A1B78013B36
:103C600023EAE3730146D8B2FFF754BF2C200020AB
:103C7000A53100080146024A0020FFF74BBF00BFF4
:103C8000A5310008044B054A1B78013B23EAE37386
:103C90000146D8B2FFF73EBF2C200020ED310008CE
:103CA0000146024A0020FFF735BF00BFED31000892
:103CB000044B054A1B78013B23EAE3730146D8B263
:103CC000FFF728BF2C200020613200080146024A7D
:103CD0000020FFF71FBF00BF61320008044B054AF8
:103CE0001B78013B23EAE3730146D8B2FFF712BF0A
:103CF0002C200020D93200080146024A0020FFF79C
:103D000009BF00BFD9320008044B054A1B78013BAC
:103D100023EAE3730146D8B2FFF7FCBE2C20002053
:103D2000273300080146024A0020FFF7F3BE00BF18
:103D3000273300082DE9F34104781E4ADFF8788024
:103D40005378917804EB8404A400E4B2054604F1AE
:103D50001406D07843EA0123F6B2622E43EA00400B
:103D6000374628BF6227FFF7FBFBC0F307238DF818
:103D70000530C0F307438DF804008DF80630E3B238
:103D80009F4206D8612E8CBF0020012002B0BDE802
:103D9000F08118F804206B781A4208D09DF806309C
:103DA0009DF804209DF805102046FFF70DFC013416
:103DB000E5E700BF202000201C0D00202DE9F74F73
:103DC0000478DFF88480DFF8849004EB8404A40096
:103DD000E4B204F11405EDB2622D06464FF0030281
:103DE00008F101016846AA4628BF4FF0620A03F0B5
:103DF00000FD98F80470A9F1C30BBF08E3B29A451F
:103E000006D8612D8CBF0020012003B0BDE8F08FE3
:103E100019F8042073781A4213D01BF8142098F86C
:103E20000130120902FB07338DF800300098FFF7CC
:103E300097FBC0F30743C2B2C0F307212046FFF748
:103E4000C3FB0134DAE700BF202000201C0D002056
:103E50002DE9F74F0478DFF88480DFF8849004EBD5
:103E60008404A400E4B204F11405EDB2622D064608
:103E70004FF0030208F101016846AA4628BF4FF03F
:103E8000620A03F0B6FC98F80470A9F1C40BBF08ED
:103E9000E3B29A4506D8612D8CBF0020012003B003
:103EA000BDE8F08F19F8042073781A4213D01BF87C
:103EB000142098F801307A4303EB52138DF8003048
:103EC0000098FFF74DFBC0F30743C2B2C0F30721D0
:103ED0002046FFF779FB0134DAE700BF20200020FD
:103EE0001C0D00202DE9F7430478DFF8B49004EBB3
:103EF0008404A400E4B204F11405EDB2622D4FF085
:103F0000030209F10101064668462F4628BF6227D1
:103F100003F06FFC214B99F80380188899F804305E
:103F2000DB085843C0F30720FEF704FFA0F180032D
:103F30005BB2002BBCBFC0F1800043B25B00DBB2C0
:103F400013FB08F31B128DF802300098DFF8548041
:103F5000FFF706FBC0F307238DF80400C0F307400A
:103F60008DF805308DF80600E3B29F4206D8612D2A
:103F70008CBF0020012003B0BDE8F08318F80420B6
:103F800073781A4208D09DF806309DF804209DF8F9
:103F900005102046FFF718FB0134E5E72820002034
:103FA000202000201C0D00202DE9F7430478DFF8C5
:103FB000B89004EB8404A400E4B204F11405EDB25B
:103FC000622D4FF0030209F10101064668462F46B3
:103FD00028BF622703F00DFC224B99F80180188856
:103FE00099F80430DB085843C0F30720FEF7A2FE1F
:103FF000A0F180035BB2002BBCBFC0F1800043B2D4
:104000005B0003F0FE0303EB430308EB93188DF80A
:1040100000800098DFF85480FEF760FEC0F30723AD
:104020008DF80400C0F307408DF805308DF80600C8
:10403000E3B29F4206D8612D8CBF0020012003B05F
:10404000BDE8F08318F8042073781A4208D09DF870
:1040500006309DF804209DF805102046FFF7B4FABD
:104060000134E5E728200020202000201C0D00203E
:10407000014B9B68184700BFBC7B00082DE9FF4738
:10408000054601911446FDF75FFC0746002842D023
:10409000304B019900221A6024B102AA2846FFF78A
:1040A0007BFA04462C4D2B782344082B20DDC4F1E9
:1040B0000806611C32462944681C03F09AFB04F18F
:1040C00009013246294405F1090003F092FB05EB92
:1040D00044017200193105F1190003F08AFB04F163
:1040E00011013246294405F1110003F082FB2E70C4
:1040F00000222E78DFF864C002A990469646D0B21E
:1041000056FA82F38442DBB208D83444E4B2B8F100
:10411000000F00D02C7004B0BDE8F08711F8019BAF
:1041200009F12C0005EB03081CF810A088F801A089
:104130000CEB40000C3305EB4303407888F8090092
:1041400088F8119083F801E083F802E00132B84664
:10415000D5E700BFCC1E0020A11E0020000C0020CF
:1041600038B56C4B6C4A1B78834205462AD16B49A3
:104170001378097803F003035B1A18BF0123684C16
:10418000A370537962789A4205D0002211461046F6
:104190006370FFF76DFF242D1DD8DFE805F0151EB5
:1041A0002E32363A3E42464A4E52565A5E62666A4F
:1041B0006E72767A7E82868A8E92969A9EA2A6AA3F
:1041C000AEB2B6000123DAE7A07848B1002211466A
:1041D0001046FFF74DFF002002E05148FFF7AAFD0F
:1041E00023780133237038B94E4B02221A70A2781B
:1041F00012B90DB903221A7038BD4948FFF7DEFD28
:10420000EEE74748FFF724FEEAE74548FFF76AFE76
:10421000E6E74348FFF74AFBE2E74148FFF74CFB7C
:10422000DEE73F48FFF7D0FADAE73D48FFF7D2FA7A
:10423000D6E73B48FFF746FAD2E73948FFF748FA96
:10424000CEE73748FFF73EFBCAE73548FFF740FBAC
:10425000C6E73348FFF742FBC2E73148FFF744FBAC
:10426000BEE72F48FFF73AFABAE72D48FFF7B8FA4A
:10427000B6E72B48FFF7BAFAB2E72948FFF734FA56
:10428000AEE72748FFF7B0FBAAE72548FFF7B2FBE8
:10429000A6E72348FFF7B4FBA2E72148FFF784FE17
:1042A0009EE71F48FFF726FB9AE71D48FFF728FB0C
:1042B00096E71B48FFF722FC92E71948FFF724FC1A
:1042C0008EE71748FFF7C8FC8AE71548FFF7D2FCCE
:1042D00086E71348FFF7D6FC82E71148FFF7E0FCBA
:1042E0007EE70F48FFF7E4FC7AE70D48FFF7EEFCA6
:1042F00076E70B48FFF7F2FC72E70948FFF7FCFC92
:104300006EE70748FFF700FD6AE70548FFF70AFD7B
:1043100066E700BF930D002020200020940D0020B0
:10432000900D0020950D00207047704708B5FFF7ED
:10433000FBFFFFF7FAFF08BD704707B5017801EBF7
:1043400081018900C9B26229A1F11400C0B228BF5D
:104350006221CDE90001FFF7EFFFDDE90001FBF786
:10436000FDFF03B05DF804FB2DE9F8433E4C3F4FE1
:10437000206800F0D3FF054600F0A8FF3C4B97F8FB
:1043800000801E6820602E440024C5F57F4C1E600E
:104390004146A6460CF1FF0CE3B2984517D8BEF192
:1043A000000F00D03970334B1C7844BB324B9E4217
:1043B00005D8324B1B7813F0030400D09C08304D15
:1043C0002B78032B29D8DFE803F01C2A364204F1AE
:1043D0000C0207EB42020134537892F8029043EA50
:1043E00009239C4529BF5B1901F1FF315370C3F3C9
:1043F00007233ABFC9B24FF0010E9370CCE70024F7
:10440000DDE7204B194900221A701F4B2922186042
:104410001E4803F0EEF901232B70BDE8F883204617
:10442000FFF79EFE002CF8D0FFF780FFBDE8F843B1
:104430001448FFF782BF164B164A1C700F4B1B78AF
:10444000C3F301031370FFF7B9F80323E4E7124B3A
:104450001B780BB1FFF776F80B4B186800F05EFF86
:104460000F28DAD90023D7E7D01E0020A11E002094
:10447000CC1E0020D41E0020C027090020200020D0
:10448000950D0020900D0020282000202C200020D9
:10449000930D0020940D0020A01E0020154B10B598
:1044A0001B689847144800241022FF2100F8194B7C
:1044B00003F0ADF911481022FF2100F8194B03F069
:1044C000A6F9FDF787F918B9FDF706FAFFF74CF8DA
:1044D0000B4C08221C212046FEF79CFA094B0022B7
:1044E0001A70237813F0FC0F03D1BDE81040FFF7DA
:1044F0003BB810BDBC7B00082C200020A11E002072
:1045000020200020A01E002070B50B4E044688B16C
:1045100035787DB92846FFF723FE084B084A1D7001
:10452000084B1B78C3F301031370FFF747F8064BE2
:1045300003221A70347070BDD41E0020930D002029
:10454000940D002020200020950D0020044A1378AF
:1045500083F001031370034B00221A70FEF706BFAD
:1045600020200020950D00200120FFF7EFBF000064
:104570000C4A034608461178890711D063B1242BF1
:104580000CD803F03F03117863F38701064B1170D9
:1045900000221A70FEF7EABE0123F4E72423F2E7B3
:1045A000704700BF20200020950D00200121FFF75B
:1045B000DFBF0000054B1B789B080133252B01460C
:1045C00034BF18460120FFF7D3BF00BF20200020D2
:1045D0000120FFF7EFBF0000064B1B78C3F38503F4
:1045E000013B13F0FF03014614BF18462420FFF7D8
:1045F000BFBF00BF202000200120FFF7EDBF00005B
:1046000030B4074C0546184623789B0705D06570E3
:10461000A170E27030BCFEF7A9BE30BC704700BF8D
:1046200020200020034903464878CA78897808305A
:10463000FFF7E6BF202000200120FFF7F3BF0000B6
:10464000054910B44C78CA788978083C0346A0B272
:104650005DF8044BFFF7D4BF202000200120FFF7B6
:10466000EFBF000010B4074CA178E2781031FF29A9
:1046700028BFFF210346C9B260785DF8044BFFF7FD
:10468000BFBF00BF202000200120FFF7EBBF0000CC
:1046900010B4064CA178E278103921EAE1710346A2
:1046A000C9B260785DF8044BFFF7AABF2020002054
:1046B0000120FFF7EDBF000010B4074CE278A178AD
:1046C0001032FF2A28BFFF220346D2B260785DF87D
:1046D000044BFFF795BF00BF202000200120FFF70B
:1046E000EBBF000010B4064CE278A178103A22EA41
:1046F000E2720346D2B260785DF8044BFFF780BFE8
:10470000202000200120FFF7EDBF0000044A1379AC
:104710001033FF2B28BFFF231371FEF727BE00BF06
:10472000202000200120FFF7F1BF0000034A137989
:10473000103B23EAE3731371FEF718BE202000201C
:104740000120FFF7F3BF000008B50548002100F085
:10475000ABF8BDE808400348012100F0A5B800BF50
:104760000D0400480E04004808B500F059FB054947
:10477000054800F033F8BDE808400249034800F05E
:104780002DB800BF0D0800480D0400480E04004875
:10479000F8B5174600220D461E461146042300F0C8
:1047A00079FB044620B900F0EDFB00242046F8BD5B
:1047B000094865F05F0505704770022100F0D8FBDD
:1047C0000028F0D19DF81810304600F0D1FB0028E9
:1047D000E9D100F0D7FBE9E7D71E0020F0B521F0C2
:1047E0000F07012501F00F0185B005FA01F42146FC
:1047F00006462A463846A4B202F0B5F93C830DF1CC
:104800000F03962700952A46002130468DF80F7039
:10481000FFF7BEFF0024E2B200950DF10F03042163
:10482000304601348DF80F70FFF7B2FFD82CF2D16B
:104830000022B1238DF80F3000950DF10F031146C2
:104840003046FFF7A5FF05B0F0BD0000F0B50B4CFA
:1048500004EB800514F820400948AF78EE786D78B5
:1048600004F003044FF0D80C0CFB04004155C25572
:104870008355044B01221A55F0BD00BF2378000870
:1048800055200020D51E0020F8B505460E461746D7
:10489000002420463B46324629460134FFF7D6FF26
:1048A000622CF6D1F8BD000037B5084D6B5C0C46A4
:1048B00043B1074AD823009301FB032300220221BE
:1048C000FFF766FF00232B5503B030BDD51E002037
:1048D0005520002000B110470847000038B58C78FB
:1048E0000546002C51D0FCF763FE45F6D6439D42A9
:1048F00000F0220014D845F6C2439D4215D9A5F513
:10490000B945443D122D12D8DFE805F0151A1D20D7
:104910002326292C2F3235393B3D13131313130053
:1049200045F65E539D4208BF0024204638BDFFF780
:104930001BFE0024F9E7164A1649FFF7CBFFF8E7FC
:10494000144A1349F9E7144A1449F6E7134A12497D
:10495000F3E7134A1349F0E7124A1149EDE7124A07
:104960001249EAE7114A1049E7E7114A1149E4E719
:10497000104A0F49E1E70120FFF718FED9E70420AC
:10498000FAE70C20F8E71120F6E70124CDE700BF95
:10499000F9450008D14500085D4600083946000881
:1049A000B14600088946000805470008DD460008B2
:1049B000414700082547000838B505468878002893
:1049C00000F0E38045F603539D421BD845F6FA43B9
:1049D0009D4204D8A5F5B843023B132B16D8FCF72B
:1049E00009FF6B4C45F615439D42208020D845F6C3
:1049F00001439D420BD82088FCF708FFFCF766F9BD
:104A0000002003E045F662539D42E8D038BDA5F58D
:104A1000B845033D122D2AD8DFE805F02E32364383
:104A2000474B4F556165696D797D81858BA79300F3
:104A300045F603539D420ED845F6FA439D42DAD916
:104A4000A5F5B9457C3D072D22D8DFE805F02658AD
:104A50005C427685989C45F662539D42CBD1237883
:104A6000C3F3001282F0010262F3041302E0237820
:104A700043F001032370BEE7237843F00203F9E714
:104A8000237843F00403F5E7237843F00803F1E7C4
:104A9000637843F001036370ADE7637843F002038A
:104AA000F9E7237843F01003E4E7237843F0200389
:104AB000E0E7237843F04003DCE7FCF707F92378CD
:104AC00043F08003D6E7237823F00C0343F00C0374
:104AD000D0E7637823F0030343F00303DBE7237895
:104AE0006FF30003C6E723786FF34103C2E723782F
:104AF0006FF38203BEE723786FF3C303BAE76378EB
:104B00006FF30003C7E763786FF34103C3E72378CC
:104B10006FF30413AEE723786FF34513AAE7237806
:104B20006FF38613A6E7FCF7D1F823786FF3C7136A
:104B3000A0E7237823F00C039CE7637823F00303BA
:104B4000A9E72378C3F3800282F00102D2B262F3B4
:104B5000820362F3C3038DE76378DA4302F0010254
:104B600062F3000362F3410395E7FCF7AFF82378A3
:104B7000C3F3C01282F0010262F3C7137AE7012087
:104B8000FCF7ACFE37E70020FAE701203EE700BF64
:104B90000820002008B5FBF7CBFB08BD10B50C4C76
:104BA00020224FF40041204601F0DDFF20224FF487
:104BB0008041204601F0D7FF226923695B0BC2F3D5
:104BC000C03203F002031343024A137010BD00BF4A
:104BD00000080048DA1E00201E4B1A691B6910B538
:104BE0005B0BC2F3C03203F0020313431A4A1B4C9F
:104BF000117843EA8103DBB21370194A03F00F0303
:104C0000D35C227813445BB2032B237020DD154A5A
:104C100013780021013313700846FFF7BBFF012012
:104C200094F90030033308DA0E4A1378013B13700D
:104C300001210020FFF7AEFF012094F900305A4215
:104C400002F0030203F0030358BF5342237010BD68
:104C50000020E5E700080048DA1E0020D91E0020E9
:104C6000CC7C0008DB1E002045F61643984210B5A8
:104C70000C461BD1FCF79CFCA2780D4B72B100F0E6
:104C8000AA00002815BF01220022352029201A7011
:104C9000FCF75EFCFCF7FEFC002010BD1B78002B2F
:104CA00014BF35202920FCF75BFCF3E70120F4E773
:104CB000DC1E0020F8B5144682789DF818701D4659
:104CC000284B92B11C7000F01DFB274B188004F19B
:104CD0002003DBB2072B44D804F007040120A040D6
:104CE000C0B2BDE8F840FBF79DBD1E78A6422ED1AC
:104CF0001D4B188800F00BFBC72828D8AE4205F1E1
:104D0000200415D006F12003DBB2072B06D806F0ED
:104D100007060120B040C0B2FBF78DFDE3B2072BC0
:104D200006D805F0070301209840C0B2FBF77AFDD2
:104D30003846E4B2FBF770FD072C12D805F00705E2
:104D40000120A840BDE8F840C0B2FBF774BD04F1F3
:104D50002003DBB2072B04D804F007040120A04095
:104D6000F0E7F8BDDD1E0020DE1E002013B545F67D
:104D7000F74304469C4208460FD845F6F3439C424D
:104D800012D845F6D9439C421DD045F6DA439C42E1
:104D90003ED045F6D8439C420FD0807800283BD0C7
:104DA0001E4B00221A701CE0A4F5B944753C022C7D
:104DB0000ED8DFE804F0181F260026230093E12315
:104DC0001A4621460AE027230093E523E522F8E767
:104DD00026230093E022E12345F6F441FFF76AFF22
:104DE000002002B010BD27230093E422E52345F6FE
:104DF000F541F3E726230093E222E12345F6F6414D
:104E0000ECE727230093E622E52345F6F741E5E7A3
:104E1000282300930123D9E70120E2E7DD1E0020CB
:104E20001B4B07B51A787ABB012119704FF09040DF
:104E30002021019201F097FE019A40214FF090400D
:104E400001F091FE019A80214FF0904001F08BFE1D
:104E50004FF47A7001F037F840F29A2220214FF097
:104E6000904001F080FE40F29A2240214FF09040A5
:104E700001F079FE40F29A2280214FF0904003B079
:104E80005DF804EB01F06FBE03B05DF804FB00BFFA
:104E9000E01E002038B505463248046801345FD171
:104EA0006C1C5DD002249C422DD3A31EFE2B57D830
:104EB000022A2D4B4FEAC11128D0032A29D0012AFA
:104EC00008BF41F00101202C19823DD024D8082CC4
:104ED00032D0102C34D0042C29D0012405F00F013D
:104EE000D9602246056004FA01F125F00F009860B0
:104EF00001F039FE1C491D4801F0A0F81B4801F0E3
:104F0000B9F8204638BD6400A4B2CCE741F00201F4
:104F1000D9E741F00301D6E7802C19D0B4F5807FA2
:104F20001AD0402CD9D11A8A42F0280202E01A8AFB
:104F300042F008021A82D0E71A8A42F01002F9E71A
:104F40001A8A42F01802F5E71A8A42F02002F1E7C5
:104F50001A8A42F03002EDE71A8A42F03802E9E795
:104F60000020CFE7980D0020E41E0020AC23002095
:104F700008B50246024801F099F8002008BD00BFBC
:104F8000AC23002010B5074C2368013308D0064835
:104F900001F07EF8044801F05FF84FF0FF33236022
:104FA00010BD00BF980D0020AC230020014B1860FD
:104FB000704700BFF81E0020024B186808B1036854
:104FC00018477047F81E0020084B1B686BB1084A51
:104FD000127842B1074A92F90020002ABFBF027836
:104FE0004270062202705B6818477047F81E002066
:104FF0009C0D002008200020034A12681AB10221EB
:105000000170936818477047F81E0020054A118800
:10501000814205D0044B10801B680BB1DB68184738
:10502000704700BFFE1E0020F81E0020054A1188B0
:10503000814205D0044B10801B680BB11B691847D7
:10504000704700BFFC1E0020F81E00200C4B1B7890
:10505000821C63B10B4B93F90030002BACBF0623CD
:105060001E230020013BDBB2FF2B02D17047062339
:10507000F7E712F8011B0029F4D00130C0B2F1E7C4
:105080009C0D002008200020F1B1114B1B789BB132
:10509000104B93F90030002B0EDAEF294FEAD102C2
:1050A00012D8104401F00701827801238B4013428B
:1050B00014BF012000207047831C083013F8012B17
:1050C0008A4203D08342F9D1002070470120704703
:1050D0009C0D00200820002030B54FF0FF32841CCA
:1050E000002314F8015B8D420ED0B2F1FF3F02D1D4
:1050F000002D08BF1A460133DDB2062D5BB2F0D198
:10510000531C01D01044817030BD10B5831C0022A7
:10511000083013F8014B8C4208BF03F8012C83427E
:10512000F7D110BDEF294FEAD10307D8184401F099
:105130000701827801238B40134383707047EF2966
:105140004FEAD10308D8184401F0070183780122FF
:105150008A4023EA020383707047000010B40A4CAF
:10516000247803460A4644B1084C94F90040002CC8
:1051700003DA5DF8044BFFF7D5BF5DF8044B114629
:105180001846FFF7A9BF00BF9C0D00200820002093
:1051900010B40A4C247803460A4644B1084C94F9EA
:1051A0000040002C03DA5DF8044BFFF7C8BF5DF840
:1051B000044B11461846FFF7A8BF00BF9C0D002006
:1051C00008200020074B1B78023043B1064B93F9AF
:1051D0000030002B03DA1E22002102F018BB062249
:1051E000FAE700BF9C0D002008200020704708B59A
:1051F000FFF7FCFF08BD000008B50130024BC0B24C
:105200001870FFF7F4FF08BD001F002008B5034B1E
:1052100003201870FFF7EBFF08BD00BF001F002040
:10522000FFF7EABF08B5034B01201870FFF7DFFF57
:1052300008BD00BF001F0020FFF7F4BF08B500F055
:10524000C9FEBDE8084000F041BC08B5FBF781F994
:10525000BDE8084040F2A46000F035BE70477047DA
:1052600010B5FFF7FBFFFCF7EBFEFFF7F8FF00249C
:10527000E0B2FCF729FE18B901340B2CF8D110BDAF
:105280000120FCE708B5FCF7A9F9FCF7BDF9FCF72C
:105290006FF9FDF775F90020FFF7B8FE0020FFF762
:1052A000C5FEBDE80840FBF763B9000008B5202340
:1052B00083F3118800F0B0FE002383F31188014BC3
:1052C000186008BD041F0020FFF7F0BF38B5202389
:1052D00083F3118800F0A0FE002181F31188064BB2
:1052E000064A1C68041B06484FF47A750023E4FB49
:1052F0000501FBF703F838BD041F0020A08601005C
:105300009F86010008B5FFF7E1FF80B208BD10B528
:105310000446FFF7DBFF001B80B210BD10B504464A
:10532000FFF7D4FF001B10BD074B084A1A60BFF3FC
:105330004F8F0749074BCA6802F4E0621343CB6002
:10534000BFF34F8F00BFFDE7FC9F0020EFBEADDE37
:1053500000ED00E00400FA050B4A08B552F8041C01
:105360000A4B99420ED1002342F8043C83F314887F
:10537000074BD3F8002882F3088862B6D3F80438C4
:105380009847FEE708BD00BF00A00020EFBEADDEDD
:1053900000D0FF1F202383F31188002383F311889B
:1053A0007047704738B5094C104622460D4600211B
:1053B00042F8041F40EA0520194600F007FB206070
:1053C0006068002818BF204638BD00BF081F0020B5
:1053D00090F87A10074A0229137807D1012B01D0DF
:1053E000062B05D1044B52781A707047024A13708D
:1053F000704700BF641F00203C1F002038B50546E1
:105400000C46202383F311880F4B1A78042A03D00B
:10541000002383F3118838BD1A89520708D55B69C8
:1054200058694FF47A710C3000F05AFD0130EFD01A
:10543000064A054854700323240A0221157094700B
:1054400000F0F5FEE4E700BFDC2300205E1F002033
:1054500013B504460748C2680B461AB1019100F023
:10546000C7FB019B044A0348214602B0BDE8104037
:1054700000F078BB281F00207D54000838B5044692
:10548000202383F311880378042B03D0002383F3B4
:10549000118838BD124B1B78DB09F7D1114D2B78E1
:1054A000002BF3D0104B1B78002BEFD003899B0708
:1054B00004D40E4A0823012100F0B9FE28780C4BD1
:1054C000A0FB03034FF47A72002300F2E7300021BF
:1054D000FAF714FF21468000FFF7BAFFD6E700BFB6
:1054E00008200020241F00209C0D00203D1F0020CC
:1054F000A086010038B590F8743003F07F02212AAD
:1055000004466ED113F0800F90F8750021D0022868
:1055100019D003280ED0012863D194F878302BB924
:105520003F4AA2662022E266236738BD0023A366B5
:10553000E366F9E7B4F87830002B52D1394AA26615
:105540000120E066F0E7384BA3660120E066002307
:10555000EAE70A283CD00B280DD0092841D194F85D
:105560007830012B3DD8314BA3660223E366304BE4
:1055700023670120D9E7B4F878302BBB94F8765034
:10558000284B002D14BF012100211970294B1A78D6
:1055900061F3C7121A7017D1234B1A78A2B12022D7
:1055A00082F311881878244BA0FB03034FF47A721E
:1055B000002300F2E7300021FAF7A0FE2146800028
:1055C000FFF746FF85F311880023A366E366CFE764
:1055D0001849154B097894F877201A70CD09F3D142
:1055E000DCE7B4F8742040F281639A4201D00020D5
:1055F0009BE794F87920616894F878304D6894F8C6
:10560000771043EA0223204694F87620A847002822
:10561000EDD04368A3660368E3660023A8E700BFF4
:105620003D1F00209C0D0020241F0020641F00202F
:10563000D153000808200020A086010010B5064ABA
:10564000064C117824784B1C03F00F039C421EBFBC
:10565000034C1370605410BD152200201622002048
:105660000522002007B5052924D8DFE801F01F2313
:10567000031F1F21202383F31188104A0190012169
:1056800000F083FD0E4A0198022100F07EFD002308
:1056900083F311880B4B1B7813B10520FFF7CEFF66
:1056A000022003B05DF804EBFFF7C8BF0846F8E737
:1056B0000520F6E703B05DF804FB00BFDC7C0008C2
:1056C000007D00085D1F00207047000008B5102213
:1056D0000448002102F09BF8034A00231370034A98
:1056E000137008BD0522002015220020162200207C
:1056F000F8B5284D284C28782378284E0021984268
:1057000030D101B12070F8BD2370254B01221A70F1
:10571000244B93F87F10081E18BF0120FFF776FD79
:10572000E9E723701E4B00221A70FFF7ABFD1D4BFB
:1057300093F87F10081E18BF0120FFF771FDDAE70C
:105740002370184B93F87F10081E18BF0120FFF735
:1057500053FDD0E7002123700846F8E72370FFF7D8
:1057600061FDC8E71A460133B25C03F00F03012163
:10577000052AC4D801A757F822F000BF5D570008DA
:10578000FF56000841570008555700080957000800
:105790002357000815220020162200200522002091
:1057A0005D1F0020DC23002070B54FF090450122E2
:1057B0004FF4805104464FF480564FF0904001F072
:1057C000D2F909486E8300F07EFB0849204600F0BC
:1057D0009EFC40F202723146284601F0C4F9044BA7
:1057E0000022DA6070BD00BFF0490200247D00088D
:1057F000281F002070B54FF0904504464FF48056A6
:1058000000F098FC01224FF480514FF0904001F0DD
:10581000AAF9204605496E8300F079FC31462846F6
:1058200040F20272BDE8704001F09DB9247D00088D
:10583000014B1878704700BF3C1F002038B5054663
:10584000202383F311881D4C2378042B20D11C4A7C
:10585000238992F90020002A1EDA1A4A1278DAB156
:105860005A070BD420232A460221144800F0DFFCFB
:1058700020222946144801F0BCFF09E063695869F9
:105880004FF0FF310C3000F02BFB2378042BE9D0D4
:10589000002383F3118838BD9B0703D408232A46CD
:1058A0000121E2E7236958694FF0FF310C3000F025
:1058B00017FB2378042BEBD1F0E700BFDC2300209B
:1058C000082000209C0D00203D1F002007B520234C
:1058D000024683F311880F4B1978042905D0002361
:1058E00083F3118803B05DF804FB198949070AD5D1
:1058F0005B69019058694FF47A710C3000F0F0FA4E
:105900000130019AEBD003480623022100F08FFCFE
:10591000E5E700BFDC23002001460320FFF76EBD52
:1059200001460420FFF76ABDFFF716BD70477047B8
:1059300008B5FFF7F9FF01F0D1FDFFF7F7FF08BD4C
:1059400008B501F007FEFFF7F2FF08BDFFF774BCD2
:1059500008B5FFF7BBFE0648FFF726FF054B064AD2
:105960001A6041F28830BDE8084000F0ACBA00BFD0
:10597000DC2300207C1F0020A00D0020014B1868B4
:10598000FFF714BB7C1F002010B50E4CFFF7B0FED4
:105990002378052B15D12378052B05D0FBF77AFE4C
:1059A000BDE81040FCF70EBDFFF74FFCFFF758FCB9
:1059B0000028F0D0204600F04DFC2046FFF71AFFEB
:1059C000E9E710BDDC2300207047000010B5040A91
:1059D000032C0FD007D8012C21D0022C07D1144B57
:1059E0003B20136010BD212C0DD0222C11D00020A3
:1059F0000346F6E7C0B20228F9D80E4B0E4953F819
:105A00002030085CEDE769B10129F0D10B4B09208A
:105A1000E7E751B10129EAD1094BB620E1E7094B8B
:105A20001220DEE7084B0920DBE7084B4020D8E7CF
:105A3000437D0008347D0008407D00086E7D00082D
:105A4000FC7D00087E7D0008557D0008907D0008E3
:105A5000024B034A1A60034A5A607047182200201A
:105A60006824002000A0002070477047FEE7000077
:105A700070B5144C082560682368A268043B014691
:105A80008A4219D8D31C1B1AC11E23F003038A4271
:105A900038BF00231844E368DA1C121AC11E22F032
:105AA0000302994288BF0022002101F0B0FE013DAF
:105AB00004F11004DFD170BD53F8046F41F8046B9A
:105AC000DEE700BFB47E0008FEE7000010B50D4C15
:105AD00000F0F4F800F038F8FFF7BAFF0A49802226
